{
  "contractName": "Payroll",
  "abi": [
    {
      "constant": true,
      "inputs": [],
      "name": "owner",
      "outputs": [
        {
          "name": "",
          "type": "address"
        }
      ],
      "payable": false,
      "stateMutability": "view",
      "type": "function"
    },
    {
      "constant": true,
      "inputs": [
        {
          "name": "",
          "type": "address"
        }
      ],
      "name": "employees",
      "outputs": [
        {
          "name": "id",
          "type": "address"
        },
        {
          "name": "salary",
          "type": "uint256"
        },
        {
          "name": "lastPayday",
          "type": "uint256"
        }
      ],
      "payable": false,
      "stateMutability": "view",
      "type": "function"
    },
    {
      "constant": false,
      "inputs": [
        {
          "name": "newOwner",
          "type": "address"
        }
      ],
      "name": "transferOwnership",
      "outputs": [],
      "payable": false,
      "stateMutability": "nonpayable",
      "type": "function"
    },
    {
      "anonymous": false,
      "inputs": [
        {
          "indexed": true,
          "name": "previousOwner",
          "type": "address"
        },
        {
          "indexed": true,
          "name": "newOwner",
          "type": "address"
        }
      ],
      "name": "OwnershipTransferred",
      "type": "event"
    },
    {
      "constant": false,
      "inputs": [
        {
          "name": "employeeId",
          "type": "address"
        },
        {
          "name": "salary",
          "type": "uint256"
        }
      ],
      "name": "addEmployee",
      "outputs": [],
      "payable": false,
      "stateMutability": "nonpayable",
      "type": "function"
    },
    {
      "constant": false,
      "inputs": [
        {
          "name": "employeeId",
          "type": "address"
        }
      ],
      "name": "removeEmployee",
      "outputs": [],
      "payable": false,
      "stateMutability": "nonpayable",
      "type": "function"
    },
    {
      "constant": false,
      "inputs": [
        {
          "name": "employeeId",
          "type": "address"
        },
        {
          "name": "newSalary",
          "type": "uint256"
        }
      ],
      "name": "adjustSalary",
      "outputs": [],
      "payable": false,
      "stateMutability": "nonpayable",
      "type": "function"
    },
    {
      "constant": false,
      "inputs": [],
      "name": "addFund",
      "outputs": [
        {
          "name": "",
          "type": "uint256"
        }
      ],
      "payable": true,
      "stateMutability": "payable",
      "type": "function"
    },
    {
      "constant": false,
      "inputs": [
        {
          "name": "employeeId",
          "type": "address"
        },
        {
          "name": "newAddress",
          "type": "address"
        }
      ],
      "name": "changePaymentAddress",
      "outputs": [],
      "payable": false,
      "stateMutability": "nonpayable",
      "type": "function"
    },
    {
      "constant": false,
      "inputs": [
        {
          "name": "index",
          "type": "uint256"
        }
      ],
      "name": "checkEmployee",
      "outputs": [
        {
          "name": "employeeId",
          "type": "address"
        },
        {
          "name": "salary",
          "type": "uint256"
        },
        {
          "name": "lastPayday",
          "type": "uint256"
        }
      ],
      "payable": false,
      "stateMutability": "nonpayable",
      "type": "function"
    },
    {
      "constant": false,
      "inputs": [],
      "name": "calculateRunway",
      "outputs": [
        {
          "name": "",
          "type": "uint256"
        }
      ],
      "payable": false,
      "stateMutability": "nonpayable",
      "type": "function"
    },
    {
      "constant": false,
      "inputs": [],
      "name": "enoughFund",
      "outputs": [
        {
          "name": "",
          "type": "bool"
        }
      ],
      "payable": false,
      "stateMutability": "nonpayable",
      "type": "function"
    },
    {
      "constant": false,
      "inputs": [],
      "name": "getPaid",
      "outputs": [],
      "payable": false,
      "stateMutability": "nonpayable",
      "type": "function"
    },
    {
      "constant": false,
      "inputs": [],
      "name": "checkInfo",
      "outputs": [
        {
          "name": "balance",
          "type": "uint256"
        },
        {
          "name": "runway",
          "type": "uint256"
        },
        {
          "name": "employeeCount",
          "type": "uint256"
        }
      ],
      "payable": false,
      "stateMutability": "nonpayable",
      "type": "function"
    }
  ],
  "bytecode": "0x606060405260006003556000600455336000806101000a81548173ffffffffffffffffffffffffffffffffffffffff021916908373ffffffffffffffffffffffffffffffffffffffff1602179055506116cf8061005d6000396000f3006060604052600436106100c5576000357c0100000000000000000000000000000000000000000000000000000000900463ffffffff1680634ec19512146100ca57806385a96258146100f35780638da5cb5b1461012a57806396b026961461017f578063a2f09dfa146101f0578063bc456c421461020e578063cf41d6f814610266578063d06789471461027b578063d108177a14610302578063e2a16bad1461033b578063e7fd9a1314610368578063f2fde38b146103aa578063ff836829146103e3575b600080fd5b34156100d557600080fd5b6100dd610425565b6040518082815260200191505060405180910390f35b34156100fe57600080fd5b610106610458565b60405180848152602001838152602001828152602001935050505060405180910390f35b341561013557600080fd5b61013d610497565b604051808273ffffffffffffffffffffffffffffffffffffffff1673ffffffffffffffffffffffffffffffffffffffff16815260200191505060405180910390f35b341561018a57600080fd5b6101a060048080359060200190919050506104bc565b604051808473ffffffffffffffffffffffffffffffffffffffff1673ffffffffffffffffffffffffffffffffffffffff168152602001838152602001828152602001935050505060405180910390f35b6101f8610556565b6040518082815260200191505060405180910390f35b341561021957600080fd5b610264600480803573ffffffffffffffffffffffffffffffffffffffff1690602001909190803573ffffffffffffffffffffffffffffffffffffffff16906020019091905050610575565b005b341561027157600080fd5b610279610893565b005b341561028657600080fd5b6102b2600480803573ffffffffffffffffffffffffffffffffffffffff16906020019091905050610a18565b604051808473ffffffffffffffffffffffffffffffffffffffff1673ffffffffffffffffffffffffffffffffffffffff168152602001838152602001828152602001935050505060405180910390f35b341561030d57600080fd5b610339600480803573ffffffffffffffffffffffffffffffffffffffff16906020019091905050610a62565b005b341561034657600080fd5b61034e610eb3565b604051808215151515815260200191505060405180910390f35b341561037357600080fd5b6103a8600480803573ffffffffffffffffffffffffffffffffffffffff16906020019091908035906020019091905050610ec4565b005b34156103b557600080fd5b6103e1600480803573ffffffffffffffffffffffffffffffffffffffff1690602001909190505061114a565b005b34156103ee57600080fd5b610423600480803573ffffffffffffffffffffffffffffffffffffffff1690602001909190803590602001909190505061129f565b005b60006104536003543073ffffffffffffffffffffffffffffffffffffffff163161150390919063ffffffff16565b905090565b60008060003073ffffffffffffffffffffffffffffffffffffffff163192506004549050600060035411156104925761048f610425565b91505b909192565b6000809054906101000a900473ffffffffffffffffffffffffffffffffffffffff1681565b6000806000806005858154811015156104d157fe5b906000526020600020900160009054906101000a900473ffffffffffffffffffffffffffffffffffffffff169350600160008573ffffffffffffffffffffffffffffffffffffffff1673ffffffffffffffffffffffffffffffffffffffff16815260200190815260200160002090508060010154925080600201549150509193909250565b60003073ffffffffffffffffffffffffffffffffffffffff1631905090565b6000806000806000809054906101000a900473ffffffffffffffffffffffffffffffffffffffff1673ffffffffffffffffffffffffffffffffffffffff163373ffffffffffffffffffffffffffffffffffffffff161415156105d657600080fd5b856000600160008373ffffffffffffffffffffffffffffffffffffffff1673ffffffffffffffffffffffffffffffffffffffff168152602001908152602001600020905060008273ffffffffffffffffffffffffffffffffffffffff161415151561063d57fe5b600160008973ffffffffffffffffffffffffffffffffffffffff1673ffffffffffffffffffffffffffffffffffffffff168152602001908152602001600020955061069d670de0b6b3a7640000876001015461150390919063ffffffff16565b94506106df6106cc600a6106be89600201544261151e90919063ffffffff16565b61150390919063ffffffff16565b876001015461153790919063ffffffff16565b9350610752610741670de0b6b3a7640000600160008c73ffffffffffffffffffffffffffffffffffffffff1673ffffffffffffffffffffffffffffffffffffffff1681526020019081526020016000206001015461153790919063ffffffff16565b60035461151e90919063ffffffff16565b600381905550600160008973ffffffffffffffffffffffffffffffffffffffff1673ffffffffffffffffffffffffffffffffffffffff168152602001908152602001600020600080820160006101000a81549073ffffffffffffffffffffffffffffffffffffffff02191690556001820160009055600282016000905550506107db8786610ec4565b600160008873ffffffffffffffffffffffffffffffffffffffff1673ffffffffffffffffffffffffffffffffffffffff16815260200190815260200160002092508260000160009054906101000a900473ffffffffffffffffffffffffffffffffffffffff1673ffffffffffffffffffffffffffffffffffffffff166108fc859081150290604051600060405180830381858888f19350505050151561088057600080fd5b4283600201819055505050505050505050565b600080336000600160008373ffffffffffffffffffffffffffffffffffffffff1673ffffffffffffffffffffffffffffffffffffffff168152602001908152602001600020905060008273ffffffffffffffffffffffffffffffffffffffff16141515156108fd57fe5b600160003373ffffffffffffffffffffffffffffffffffffffff1673ffffffffffffffffffffffffffffffffffffffff1681526020019081526020016000209350610956600a856002015461157290919063ffffffff16565b9250428310151561096357fe5b82600160003373ffffffffffffffffffffffffffffffffffffffff1673ffffffffffffffffffffffffffffffffffffffff168152602001908152602001600020600201819055508360000160009054906101000a900473ffffffffffffffffffffffffffffffffffffffff1673ffffffffffffffffffffffffffffffffffffffff166108fc85600101549081150290604051600060405180830381858888f193505050501515610a1257600080fd5b50505050565b60016020528060005260406000206000915090508060000160009054906101000a900473ffffffffffffffffffffffffffffffffffffffff16908060010154908060020154905083565b6000806000809054906101000a900473ffffffffffffffffffffffffffffffffffffffff1673ffffffffffffffffffffffffffffffffffffffff163373ffffffffffffffffffffffffffffffffffffffff16141515610ac057600080fd5b826000600160008373ffffffffffffffffffffffffffffffffffffffff1673ffffffffffffffffffffffffffffffffffffffff168152602001908152602001600020905060008273ffffffffffffffffffffffffffffffffffffffff1614151515610b2757fe5b600160008673ffffffffffffffffffffffffffffffffffffffff1673ffffffffffffffffffffffffffffffffffffffff1681526020019081526020016000209350610be784606060405190810160405290816000820160009054906101000a900473ffffffffffffffffffffffffffffffffffffffff1673ffffffffffffffffffffffffffffffffffffffff1673ffffffffffffffffffffffffffffffffffffffff16815260200160018201548152602001600282015481525050611590565b610c58610c47670de0b6b3a7640000600160008973ffffffffffffffffffffffffffffffffffffffff1673ffffffffffffffffffffffffffffffffffffffff1681526020019081526020016000206001015461153790919063ffffffff16565b60035461151e90919063ffffffff16565b600381905550600160008673ffffffffffffffffffffffffffffffffffffffff1673ffffffffffffffffffffffffffffffffffffffff168152602001908152602001600020600080820160006101000a81549073ffffffffffffffffffffffffffffffffffffffff0219169055600182016000905560028201600090555050610ced600160045461151e90919063ffffffff16565b600481905550600092505b600580549050831015610e30578473ffffffffffffffffffffffffffffffffffffffff16600584815481101515610d2b57fe5b906000526020600020900160009054906101000a900473ffffffffffffffffffffffffffffffffffffffff1673ffffffffffffffffffffffffffffffffffffffff161415610e23576005610d8e600160058054905061151e90919063ffffffff16565b815481101515610d9a57fe5b906000526020600020900160009054906101000a900473ffffffffffffffffffffffffffffffffffffffff16600584815481101515610dd557fe5b906000526020600020900160006101000a81548173ffffffffffffffffffffffffffffffffffffffff021916908373ffffffffffffffffffffffffffffffffffffffff160217905550610e30565b8280600101935050610cf8565b6005610e4b600160058054905061151e90919063ffffffff16565b815481101515610e5757fe5b906000526020600020900160006101000a81549073ffffffffffffffffffffffffffffffffffffffff0219169055610e9e600160058054905061151e90919063ffffffff16565b600581610eab9190611626565b505050505050565b600080610ebe610425565b11905090565b60008060009054906101000a900473ffffffffffffffffffffffffffffffffffffffff1673ffffffffffffffffffffffffffffffffffffffff163373ffffffffffffffffffffffffffffffffffffffff16141515610f2157600080fd5b600160008473ffffffffffffffffffffffffffffffffffffffff1673ffffffffffffffffffffffffffffffffffffffff168152602001908152602001600020905060008160000160009054906101000a900473ffffffffffffffffffffffffffffffffffffffff1673ffffffffffffffffffffffffffffffffffffffff16141515610fa857fe5b6060604051908101604052808473ffffffffffffffffffffffffffffffffffffffff168152602001610feb670de0b6b3a76400008561153790919063ffffffff16565b815260200142815250600160008573ffffffffffffffffffffffffffffffffffffffff1673ffffffffffffffffffffffffffffffffffffffff16815260200190815260200160002060008201518160000160006101000a81548173ffffffffffffffffffffffffffffffffffffffff021916908373ffffffffffffffffffffffffffffffffffffffff16021790555060208201518160010155604082015181600201559050506110c06110af670de0b6b3a76400008461153790919063ffffffff16565b60035461157290919063ffffffff16565b6003819055506110dc600160045461157290919063ffffffff16565b600481905550600580548060010182816110f69190611652565b9160005260206000209001600085909190916101000a81548173ffffffffffffffffffffffffffffffffffffffff021916908373ffffffffffffffffffffffffffffffffffffffff16021790555050505050565b6000809054906101000a900473ffffffffffffffffffffffffffffffffffffffff1673ffffffffffffffffffffffffffffffffffffffff163373ffffffffffffffffffffffffffffffffffffffff161415156111a557600080fd5b600073ffffffffffffffffffffffffffffffffffffffff168173ffffffffffffffffffffffffffffffffffffffff16141515156111e157600080fd5b8073ffffffffffffffffffffffffffffffffffffffff166000809054906101000a900473ffffffffffffffffffffffffffffffffffffffff1673ffffffffffffffffffffffffffffffffffffffff167f8be0079c531659141344cd1fd0a4f28419497f9722a3daafe3b4186f6b6457e060405160405180910390a3806000806101000a81548173ffffffffffffffffffffffffffffffffffffffff021916908373ffffffffffffffffffffffffffffffffffffffff16021790555050565b60008060009054906101000a900473ffffffffffffffffffffffffffffffffffffffff1673ffffffffffffffffffffffffffffffffffffffff163373ffffffffffffffffffffffffffffffffffffffff161415156112fc57600080fd5b826000600160008373ffffffffffffffffffffffffffffffffffffffff1673ffffffffffffffffffffffffffffffffffffffff168152602001908152602001600020905060008273ffffffffffffffffffffffffffffffffffffffff161415151561136357fe5b600160008673ffffffffffffffffffffffffffffffffffffffff1673ffffffffffffffffffffffffffffffffffffffff168152602001908152602001600020925061142383606060405190810160405290816000820160009054906101000a900473ffffffffffffffffffffffffffffffffffffffff1673ffffffffffffffffffffffffffffffffffffffff1673ffffffffffffffffffffffffffffffffffffffff16815260200160018201548152602001600282015481525050611590565b61144e61143d85856001015461151e90919063ffffffff16565b60035461157290919063ffffffff16565b60038190555061146f670de0b6b3a76400008561153790919063ffffffff16565b600160008773ffffffffffffffffffffffffffffffffffffffff1673ffffffffffffffffffffffffffffffffffffffff1681526020019081526020016000206001018190555042600160008773ffffffffffffffffffffffffffffffffffffffff1673ffffffffffffffffffffffffffffffffffffffff168152602001908152602001600020600201819055505050505050565b600080828481151561151157fe5b0490508091505092915050565b600082821115151561152c57fe5b818303905092915050565b600080600084141561154c576000915061156b565b828402905082848281151561155d57fe5b0414151561156757fe5b8091505b5092915050565b600080828401905083811015151561158657fe5b8091505092915050565b60006115d2600a6115c46115b185604001514261151e90919063ffffffff16565b856020015161153790919063ffffffff16565b61150390919063ffffffff16565b9050816000015173ffffffffffffffffffffffffffffffffffffffff166108fc829081150290604051600060405180830381858888f19350505050151561161857600080fd5b428260400181815250505050565b81548183558181151161164d5781836000526020600020918201910161164c919061167e565b5b505050565b81548183558181151161167957818360005260206000209182019101611678919061167e565b5b505050565b6116a091905b8082111561169c576000816000905550600101611684565b5090565b905600a165627a7a72305820aac70a958ea940839e055150eed0cfa2ef8e03fb31a1b9859ad4759ac6c65b8a0029",
  "source": "//solidity version\npragma solidity ^0.4.14;\n\nimport \"./safemath.sol\";\nimport \"./Ownable.sol\";\n\n//contract declaration\ncontract Payroll is Ownable {\n    using SafeMath for uint;\n        //Define variables;\n    struct Employee{\n        address id;\n        uint salary;\n        uint lastPayday;\n    }\n    \n    mapping(address => Employee) public employees;\n    address administrator;\n    uint constant payDuration = 10 seconds;\n    uint totalSalary = 0;\n    uint totalEmployee = 0;\n    address[] employeeList;\n    \n    modifier existEmployee(address employeeId) {\n        var employee = employees[employeeId];\n        assert(employeeId != 0x0);\n        _;\n    }\n    \n    //add employee\n    function addEmployee(address employeeId, uint salary) onlyOwner {\n        var employee = employees[employeeId];\n        assert(employee.id == 0x0);\n        employees[employeeId] = Employee(employeeId, salary.mul(1 ether), now);\n        totalSalary = totalSalary.add(salary.mul(1 ether));\n        totalEmployee = totalEmployee.add(1);\n        employeeList.push(employeeId);\n    }\n    \n    //remove employee\n    function removeEmployee(address employeeId) onlyOwner existEmployee(employeeId) {\n        var employee = employees[employeeId];\n        _wages(employee);\n        totalSalary = totalSalary.sub(employees[employeeId].salary.mul(1 ether));\n        delete employees[employeeId];\n        totalEmployee = totalEmployee.sub(1);\n        for (uint index = 0; index < employeeList.length; index++) {\n            if (employeeList[index] == employeeId) {\n                employeeList[index] = employeeList[employeeList.length.sub(1)];\n                break;\n            }\n        }\n        delete employeeList[employeeList.length.sub(1)];\n        employeeList.length = employeeList.length.sub(1);\n        return;\n    }\n    \n    //Pay the wages when address or salary changes\n    function _wages(Employee employee) private {\n        uint wage = employee.salary.mul(now.sub(employee.lastPayday)).div(payDuration);\n        employee.id.transfer(wage);\n        employee.lastPayday = now;\n    }\n    \n    //Adjust or declare the salary of your employee\n    function adjustSalary(address employeeId, uint newSalary) onlyOwner existEmployee(employeeId) {\n        var employee = employees[employeeId];\n        _wages(employee);\n        totalSalary = totalSalary.add(employee.salary.sub(newSalary));\n        employees[employeeId].salary = newSalary.mul(1 ether);\n        employees[employeeId].lastPayday = now;\n    }\n    \n    //Add etherium fund into the contract\n    function addFund() payable returns (uint) {\n        return this.balance;\n    }\n    \n    //change payment address\n    function changePaymentAddress(address employeeId, address newAddress) onlyOwner existEmployee(employeeId) {\n        var employee = employees[employeeId];\n        uint currentSalary = employee.salary.div(1 ether);\n        uint wage = employee.salary.mul(now.sub(employee.lastPayday).div(payDuration));\n        totalSalary = totalSalary.sub(employees[employeeId].salary.mul(1 ether));\n        delete employees[employeeId];\n        addEmployee(newAddress, currentSalary);\n        var newEmployee = employees[newAddress];\n        newEmployee.id.transfer(wage);\n        newEmployee.lastPayday = now;\n    }\n    \n    //check employees details\n    function checkEmployee(uint index) returns (address employeeId, uint salary, uint lastPayday) {\n        employeeId = employeeList[index];\n        var employee = employees[employeeId];\n        salary = employee.salary;\n        lastPayday = employee.lastPayday;\n    }\n    \n    //calculate how many times can be paid from your balance\n    function calculateRunway() returns (uint) {\n        return this.balance.div(totalSalary);\n    }\n    \n    //calculate if your balance can afford the next payment\n    function enoughFund() returns (bool) {\n        return calculateRunway() > 0;\n    }\n    \n    //your employee can get paid from this function\n    function getPaid() existEmployee(msg.sender) {\n        var employee = employees[msg.sender];\n        \n        uint nextPayday = employee.lastPayday.add(payDuration);\n        \n        assert(nextPayday < now);\n        \n        employees[msg.sender].lastPayday = nextPayday;\n        employee.id.transfer(employee.salary);\n    }\n\n    function checkInfo() returns (uint balance, uint runway, uint employeeCount) {\n        balance = this.balance;\n        employeeCount = totalEmployee;\n\n        if (totalSalary > 0) {\n            runway = calculateRunway();\n        }\n    }\n}",
  "sourcePath": "/Users/junejune/OneDrive/Soliditysmartcontract/public/Payroll/contracts/employment.sol",
  "compiler": {
    "name": "solc",
    "version": "0.4.19+commit.c4cbbb05.Emscripten.clang"
  },
  "schemaVersion": "2.0.0",
  "updatedAt": "2018-03-28T13:23:05.490Z"
}