{
  "contractName": "Payroll",
  "abi": [
    {
      "constant": true,
      "inputs": [],
      "name": "owner",
      "outputs": [
        {
          "name": "",
          "type": "address"
        }
      ],
      "payable": false,
      "stateMutability": "view",
      "type": "function"
    },
    {
      "constant": true,
      "inputs": [
        {
          "name": "",
          "type": "address"
        }
      ],
      "name": "employees",
      "outputs": [
        {
          "name": "id",
          "type": "address"
        },
        {
          "name": "salary",
          "type": "uint256"
        },
        {
          "name": "lastPayday",
          "type": "uint256"
        }
      ],
      "payable": false,
      "stateMutability": "view",
      "type": "function"
    },
    {
      "constant": false,
      "inputs": [
        {
          "name": "newOwner",
          "type": "address"
        }
      ],
      "name": "transferOwnership",
      "outputs": [],
      "payable": false,
      "stateMutability": "nonpayable",
      "type": "function"
    },
    {
      "anonymous": false,
      "inputs": [
        {
          "indexed": false,
          "name": "employee",
          "type": "address"
        }
      ],
      "name": "NewEmployee",
      "type": "event"
    },
    {
      "anonymous": false,
      "inputs": [
        {
          "indexed": false,
          "name": "employee",
          "type": "address"
        }
      ],
      "name": "UpdateEmployee",
      "type": "event"
    },
    {
      "anonymous": false,
      "inputs": [
        {
          "indexed": false,
          "name": "employee",
          "type": "address"
        }
      ],
      "name": "RemoveEmployee",
      "type": "event"
    },
    {
      "anonymous": false,
      "inputs": [
        {
          "indexed": false,
          "name": "balance",
          "type": "uint256"
        }
      ],
      "name": "NewFund",
      "type": "event"
    },
    {
      "anonymous": false,
      "inputs": [
        {
          "indexed": false,
          "name": "employee",
          "type": "address"
        }
      ],
      "name": "GetPaid",
      "type": "event"
    },
    {
      "anonymous": false,
      "inputs": [
        {
          "indexed": true,
          "name": "previousOwner",
          "type": "address"
        },
        {
          "indexed": true,
          "name": "newOwner",
          "type": "address"
        }
      ],
      "name": "OwnershipTransferred",
      "type": "event"
    },
    {
      "constant": false,
      "inputs": [
        {
          "name": "employeeId",
          "type": "address"
        },
        {
          "name": "salary",
          "type": "uint256"
        }
      ],
      "name": "addEmployee",
      "outputs": [],
      "payable": false,
      "stateMutability": "nonpayable",
      "type": "function"
    },
    {
      "constant": false,
      "inputs": [
        {
          "name": "employeeId",
          "type": "address"
        }
      ],
      "name": "removeEmployee",
      "outputs": [],
      "payable": false,
      "stateMutability": "nonpayable",
      "type": "function"
    },
    {
      "constant": false,
      "inputs": [
        {
          "name": "employeeId",
          "type": "address"
        },
        {
          "name": "newSalary",
          "type": "uint256"
        }
      ],
      "name": "adjustSalary",
      "outputs": [],
      "payable": false,
      "stateMutability": "nonpayable",
      "type": "function"
    },
    {
      "constant": false,
      "inputs": [],
      "name": "addFund",
      "outputs": [
        {
          "name": "",
          "type": "uint256"
        }
      ],
      "payable": true,
      "stateMutability": "payable",
      "type": "function"
    },
    {
      "constant": false,
      "inputs": [
        {
          "name": "employeeId",
          "type": "address"
        },
        {
          "name": "newAddress",
          "type": "address"
        }
      ],
      "name": "changePaymentAddress",
      "outputs": [],
      "payable": false,
      "stateMutability": "nonpayable",
      "type": "function"
    },
    {
      "constant": false,
      "inputs": [
        {
          "name": "index",
          "type": "uint256"
        }
      ],
      "name": "checkEmployee",
      "outputs": [
        {
          "name": "employeeId",
          "type": "address"
        },
        {
          "name": "salary",
          "type": "uint256"
        },
        {
          "name": "lastPayday",
          "type": "uint256"
        }
      ],
      "payable": false,
      "stateMutability": "nonpayable",
      "type": "function"
    },
    {
      "constant": false,
      "inputs": [],
      "name": "calculateRunway",
      "outputs": [
        {
          "name": "",
          "type": "uint256"
        }
      ],
      "payable": false,
      "stateMutability": "nonpayable",
      "type": "function"
    },
    {
      "constant": false,
      "inputs": [],
      "name": "enoughFund",
      "outputs": [
        {
          "name": "",
          "type": "bool"
        }
      ],
      "payable": false,
      "stateMutability": "nonpayable",
      "type": "function"
    },
    {
      "constant": false,
      "inputs": [],
      "name": "getPaid",
      "outputs": [],
      "payable": false,
      "stateMutability": "nonpayable",
      "type": "function"
    },
    {
      "constant": false,
      "inputs": [],
      "name": "checkInfo",
      "outputs": [
        {
          "name": "balance",
          "type": "uint256"
        },
        {
          "name": "runway",
          "type": "uint256"
        },
        {
          "name": "employeeCount",
          "type": "uint256"
        }
      ],
      "payable": false,
      "stateMutability": "nonpayable",
      "type": "function"
    }
  ],
  "bytecode": "0x606060405260006003556000600455336000806101000a81548173ffffffffffffffffffffffffffffffffffffffff021916908373ffffffffffffffffffffffffffffffffffffffff1602179055506118cd8061005d6000396000f3006060604052600436106100c5576000357c0100000000000000000000000000000000000000000000000000000000900463ffffffff1680634ec19512146100ca57806385a96258146100f35780638da5cb5b1461012a57806396b026961461017f578063a2f09dfa146101f0578063bc456c421461020e578063cf41d6f814610266578063d06789471461027b578063d108177a14610302578063e2a16bad1461033b578063e7fd9a1314610368578063f2fde38b146103aa578063ff836829146103e3575b600080fd5b34156100d557600080fd5b6100dd610425565b6040518082815260200191505060405180910390f35b34156100fe57600080fd5b610106610458565b60405180848152602001838152602001828152602001935050505060405180910390f35b341561013557600080fd5b61013d610497565b604051808273ffffffffffffffffffffffffffffffffffffffff1673ffffffffffffffffffffffffffffffffffffffff16815260200191505060405180910390f35b341561018a57600080fd5b6101a060048080359060200190919050506104bc565b604051808473ffffffffffffffffffffffffffffffffffffffff1673ffffffffffffffffffffffffffffffffffffffff168152602001838152602001828152602001935050505060405180910390f35b6101f8610556565b6040518082815260200191505060405180910390f35b341561021957600080fd5b610264600480803573ffffffffffffffffffffffffffffffffffffffff1690602001909190803573ffffffffffffffffffffffffffffffffffffffff169060200190919050506105c3565b005b341561027157600080fd5b6102796108e1565b005b341561028657600080fd5b6102b2600480803573ffffffffffffffffffffffffffffffffffffffff16906020019091905050610aed565b604051808473ffffffffffffffffffffffffffffffffffffffff1673ffffffffffffffffffffffffffffffffffffffff168152602001838152602001828152602001935050505060405180910390f35b341561030d57600080fd5b610339600480803573ffffffffffffffffffffffffffffffffffffffff16906020019091905050610b37565b005b341561034657600080fd5b61034e610feb565b604051808215151515815260200191505060405180910390f35b341561037357600080fd5b6103a8600480803573ffffffffffffffffffffffffffffffffffffffff16906020019091908035906020019091905050610ffc565b005b34156103b557600080fd5b6103e1600480803573ffffffffffffffffffffffffffffffffffffffff169060200190919050506112e5565b005b34156103ee57600080fd5b610423600480803573ffffffffffffffffffffffffffffffffffffffff1690602001909190803590602001909190505061143a565b005b60006104536003543073ffffffffffffffffffffffffffffffffffffffff163161170190919063ffffffff16565b905090565b60008060003073ffffffffffffffffffffffffffffffffffffffff163192506004549050600060035411156104925761048f610425565b91505b909192565b6000809054906101000a900473ffffffffffffffffffffffffffffffffffffffff1681565b6000806000806005858154811015156104d157fe5b906000526020600020900160009054906101000a900473ffffffffffffffffffffffffffffffffffffffff169350600160008573ffffffffffffffffffffffffffffffffffffffff1673ffffffffffffffffffffffffffffffffffffffff16815260200190815260200160002090508060010154925080600201549150509193909250565b60007fbe1e4b1ad5d83f75925e2f00ab046fbab2ee90d0dbdf7f2049d037a48ada09f33073ffffffffffffffffffffffffffffffffffffffff16316040518082815260200191505060405180910390a13073ffffffffffffffffffffffffffffffffffffffff1631905090565b6000806000806000809054906101000a900473ffffffffffffffffffffffffffffffffffffffff1673ffffffffffffffffffffffffffffffffffffffff163373ffffffffffffffffffffffffffffffffffffffff1614151561062457600080fd5b856000600160008373ffffffffffffffffffffffffffffffffffffffff1673ffffffffffffffffffffffffffffffffffffffff168152602001908152602001600020905060008273ffffffffffffffffffffffffffffffffffffffff161415151561068b57fe5b600160008973ffffffffffffffffffffffffffffffffffffffff1673ffffffffffffffffffffffffffffffffffffffff16815260200190815260200160002095506106eb670de0b6b3a7640000876001015461170190919063ffffffff16565b945061072d61071a600a61070c89600201544261171c90919063ffffffff16565b61170190919063ffffffff16565b876001015461173590919063ffffffff16565b93506107a061078f670de0b6b3a7640000600160008c73ffffffffffffffffffffffffffffffffffffffff1673ffffffffffffffffffffffffffffffffffffffff1681526020019081526020016000206001015461173590919063ffffffff16565b60035461171c90919063ffffffff16565b600381905550600160008973ffffffffffffffffffffffffffffffffffffffff1673ffffffffffffffffffffffffffffffffffffffff168152602001908152602001600020600080820160006101000a81549073ffffffffffffffffffffffffffffffffffffffff02191690556001820160009055600282016000905550506108298786610ffc565b600160008873ffffffffffffffffffffffffffffffffffffffff1673ffffffffffffffffffffffffffffffffffffffff16815260200190815260200160002092508260000160009054906101000a900473ffffffffffffffffffffffffffffffffffffffff1673ffffffffffffffffffffffffffffffffffffffff166108fc859081150290604051600060405180830381858888f1935050505015156108ce57600080fd5b4283600201819055505050505050505050565b600080336000600160008373ffffffffffffffffffffffffffffffffffffffff1673ffffffffffffffffffffffffffffffffffffffff168152602001908152602001600020905060008273ffffffffffffffffffffffffffffffffffffffff161415151561094b57fe5b600160003373ffffffffffffffffffffffffffffffffffffffff1673ffffffffffffffffffffffffffffffffffffffff16815260200190815260200160002093506109a4600a856002015461177090919063ffffffff16565b925042831015156109b157fe5b82600160003373ffffffffffffffffffffffffffffffffffffffff1673ffffffffffffffffffffffffffffffffffffffff168152602001908152602001600020600201819055508360000160009054906101000a900473ffffffffffffffffffffffffffffffffffffffff1673ffffffffffffffffffffffffffffffffffffffff166108fc85600101549081150290604051600060405180830381858888f193505050501515610a6057600080fd5b7f7decdec0fa70b21ecd45a15b04d5f5313c8fc915a1b3c034aa2bffa4fc8fc5918460000160009054906101000a900473ffffffffffffffffffffffffffffffffffffffff16604051808273ffffffffffffffffffffffffffffffffffffffff1673ffffffffffffffffffffffffffffffffffffffff16815260200191505060405180910390a150505050565b60016020528060005260406000206000915090508060000160009054906101000a900473ffffffffffffffffffffffffffffffffffffffff16908060010154908060020154905083565b6000806000809054906101000a900473ffffffffffffffffffffffffffffffffffffffff1673ffffffffffffffffffffffffffffffffffffffff163373ffffffffffffffffffffffffffffffffffffffff16141515610b9557600080fd5b826000600160008373ffffffffffffffffffffffffffffffffffffffff1673ffffffffffffffffffffffffffffffffffffffff168152602001908152602001600020905060008273ffffffffffffffffffffffffffffffffffffffff1614151515610bfc57fe5b600160008673ffffffffffffffffffffffffffffffffffffffff1673ffffffffffffffffffffffffffffffffffffffff1681526020019081526020016000209350610cbc84606060405190810160405290816000820160009054906101000a900473ffffffffffffffffffffffffffffffffffffffff1673ffffffffffffffffffffffffffffffffffffffff1673ffffffffffffffffffffffffffffffffffffffff1681526020016001820154815260200160028201548152505061178e565b610d2d610d1c670de0b6b3a7640000600160008973ffffffffffffffffffffffffffffffffffffffff1673ffffffffffffffffffffffffffffffffffffffff1681526020019081526020016000206001015461173590919063ffffffff16565b60035461171c90919063ffffffff16565b600381905550600160008673ffffffffffffffffffffffffffffffffffffffff1673ffffffffffffffffffffffffffffffffffffffff168152602001908152602001600020600080820160006101000a81549073ffffffffffffffffffffffffffffffffffffffff0219169055600182016000905560028201600090555050610dc2600160045461171c90919063ffffffff16565b600481905550600092505b600580549050831015610f05578473ffffffffffffffffffffffffffffffffffffffff16600584815481101515610e0057fe5b906000526020600020900160009054906101000a900473ffffffffffffffffffffffffffffffffffffffff1673ffffffffffffffffffffffffffffffffffffffff161415610ef8576005610e63600160058054905061171c90919063ffffffff16565b815481101515610e6f57fe5b906000526020600020900160009054906101000a900473ffffffffffffffffffffffffffffffffffffffff16600584815481101515610eaa57fe5b906000526020600020900160006101000a81548173ffffffffffffffffffffffffffffffffffffffff021916908373ffffffffffffffffffffffffffffffffffffffff160217905550610f05565b8280600101935050610dcd565b6005610f20600160058054905061171c90919063ffffffff16565b815481101515610f2c57fe5b906000526020600020900160006101000a81549073ffffffffffffffffffffffffffffffffffffffff0219169055610f73600160058054905061171c90919063ffffffff16565b600581610f809190611824565b507f52d6abdca596d1c4a93f3df131dcf3a55ecaaa92ab3a0be58a15b98aab12d49b85604051808273ffffffffffffffffffffffffffffffffffffffff1673ffffffffffffffffffffffffffffffffffffffff16815260200191505060405180910390a15050505050565b600080610ff6610425565b11905090565b60008060009054906101000a900473ffffffffffffffffffffffffffffffffffffffff1673ffffffffffffffffffffffffffffffffffffffff163373ffffffffffffffffffffffffffffffffffffffff1614151561105957600080fd5b600160008473ffffffffffffffffffffffffffffffffffffffff1673ffffffffffffffffffffffffffffffffffffffff168152602001908152602001600020905060008160000160009054906101000a900473ffffffffffffffffffffffffffffffffffffffff1673ffffffffffffffffffffffffffffffffffffffff161415156110e057fe5b6060604051908101604052808473ffffffffffffffffffffffffffffffffffffffff168152602001611123670de0b6b3a76400008561173590919063ffffffff16565b815260200142815250600160008573ffffffffffffffffffffffffffffffffffffffff1673ffffffffffffffffffffffffffffffffffffffff16815260200190815260200160002060008201518160000160006101000a81548173ffffffffffffffffffffffffffffffffffffffff021916908373ffffffffffffffffffffffffffffffffffffffff16021790555060208201518160010155604082015181600201559050506111f86111e7670de0b6b3a76400008461173590919063ffffffff16565b60035461177090919063ffffffff16565b600381905550611214600160045461177090919063ffffffff16565b6004819055506005805480600101828161122e9190611850565b9160005260206000209001600085909190916101000a81548173ffffffffffffffffffffffffffffffffffffffff021916908373ffffffffffffffffffffffffffffffffffffffff160217905550507f37e9308d0d750d43a2e5ef16b6d47b60b2741e12be41128ca3bec877db4f9dcb83604051808273ffffffffffffffffffffffffffffffffffffffff1673ffffffffffffffffffffffffffffffffffffffff16815260200191505060405180910390a1505050565b6000809054906101000a900473ffffffffffffffffffffffffffffffffffffffff1673ffffffffffffffffffffffffffffffffffffffff163373ffffffffffffffffffffffffffffffffffffffff1614151561134057600080fd5b600073ffffffffffffffffffffffffffffffffffffffff168173ffffffffffffffffffffffffffffffffffffffff161415151561137c57600080fd5b8073ffffffffffffffffffffffffffffffffffffffff166000809054906101000a900473ffffffffffffffffffffffffffffffffffffffff1673ffffffffffffffffffffffffffffffffffffffff167f8be0079c531659141344cd1fd0a4f28419497f9722a3daafe3b4186f6b6457e060405160405180910390a3806000806101000a81548173ffffffffffffffffffffffffffffffffffffffff021916908373ffffffffffffffffffffffffffffffffffffffff16021790555050565b60008060009054906101000a900473ffffffffffffffffffffffffffffffffffffffff1673ffffffffffffffffffffffffffffffffffffffff163373ffffffffffffffffffffffffffffffffffffffff1614151561149757600080fd5b826000600160008373ffffffffffffffffffffffffffffffffffffffff1673ffffffffffffffffffffffffffffffffffffffff168152602001908152602001600020905060008273ffffffffffffffffffffffffffffffffffffffff16141515156114fe57fe5b600160008673ffffffffffffffffffffffffffffffffffffffff1673ffffffffffffffffffffffffffffffffffffffff16815260200190815260200160002092506115be83606060405190810160405290816000820160009054906101000a900473ffffffffffffffffffffffffffffffffffffffff1673ffffffffffffffffffffffffffffffffffffffff1673ffffffffffffffffffffffffffffffffffffffff1681526020016001820154815260200160028201548152505061178e565b6115e96115d885856001015461171c90919063ffffffff16565b60035461177090919063ffffffff16565b60038190555061160a670de0b6b3a76400008561173590919063ffffffff16565b600160008773ffffffffffffffffffffffffffffffffffffffff1673ffffffffffffffffffffffffffffffffffffffff1681526020019081526020016000206001018190555042600160008773ffffffffffffffffffffffffffffffffffffffff1673ffffffffffffffffffffffffffffffffffffffff168152602001908152602001600020600201819055507f488bacda22fcd72c26e796890d62491cef03e8de61cad515b1826a683f2e760f85604051808273ffffffffffffffffffffffffffffffffffffffff1673ffffffffffffffffffffffffffffffffffffffff16815260200191505060405180910390a15050505050565b600080828481151561170f57fe5b0490508091505092915050565b600082821115151561172a57fe5b818303905092915050565b600080600084141561174a5760009150611769565b828402905082848281151561175b57fe5b0414151561176557fe5b8091505b5092915050565b600080828401905083811015151561178457fe5b8091505092915050565b60006117d0600a6117c26117af85604001514261171c90919063ffffffff16565b856020015161173590919063ffffffff16565b61170190919063ffffffff16565b9050816000015173ffffffffffffffffffffffffffffffffffffffff166108fc829081150290604051600060405180830381858888f19350505050151561181657600080fd5b428260400181815250505050565b81548183558181151161184b5781836000526020600020918201910161184a919061187c565b5b505050565b81548183558181151161187757818360005260206000209182019101611876919061187c565b5b505050565b61189e91905b8082111561189a576000816000905550600101611882565b5090565b905600a165627a7a7230582075bc02b0cf33c7b1c1c595184ee570b91aecb2385b6a32a2fc0136fec7de5e050029",
  "source": "//solidity version\npragma solidity ^0.4.14;\n\nimport \"./safemath.sol\";\nimport \"./Ownable.sol\";\n\n//contract declaration\ncontract Payroll is Ownable {\n    using SafeMath for uint;\n        //Define variables;\n    struct Employee{\n        address id;\n        uint salary;\n        uint lastPayday;\n    }\n    \n    mapping(address => Employee) public employees;\n    address administrator;\n    uint constant payDuration = 10 seconds;\n    uint totalSalary = 0;\n    uint totalEmployee = 0;\n    address[] employeeList;\n\n    event NewEmployee(\n        address employee\n    );\n    event UpdateEmployee(\n        address employee\n    );\n    event RemoveEmployee(\n        address employee\n    );\n    event NewFund(\n        uint balance\n    );\n    event GetPaid(\n        address employee\n    );\n\n    modifier existEmployee(address employeeId) {\n        var employee = employees[employeeId];\n        assert(employeeId != 0x0);\n        _;\n    }\n    \n    //add employee\n    function addEmployee(address employeeId, uint salary) onlyOwner {\n        var employee = employees[employeeId];\n        assert(employee.id == 0x0);\n        employees[employeeId] = Employee(employeeId, salary.mul(1 ether), now);\n        totalSalary = totalSalary.add(salary.mul(1 ether));\n        totalEmployee = totalEmployee.add(1);\n        employeeList.push(employeeId);\n        NewEmployee(employeeId);\n    }\n    \n    //remove employee\n    function removeEmployee(address employeeId) onlyOwner existEmployee(employeeId) {\n        var employee = employees[employeeId];\n        _wages(employee);\n        totalSalary = totalSalary.sub(employees[employeeId].salary.mul(1 ether));\n        delete employees[employeeId];\n        totalEmployee = totalEmployee.sub(1);\n        for (uint index = 0; index < employeeList.length; index++) {\n            if (employeeList[index] == employeeId) {\n                employeeList[index] = employeeList[employeeList.length.sub(1)];\n                break;\n            }\n        }\n        delete employeeList[employeeList.length.sub(1)];\n        employeeList.length = employeeList.length.sub(1);\n        RemoveEmployee(employeeId);\n        return;\n    }\n    \n    //Pay the wages when address or salary changes\n    function _wages(Employee employee) private {\n        uint wage = employee.salary.mul(now.sub(employee.lastPayday)).div(payDuration);\n        employee.id.transfer(wage);\n        employee.lastPayday = now;\n    }\n    \n    //Adjust or declare the salary of your employee\n    function adjustSalary(address employeeId, uint newSalary) onlyOwner existEmployee(employeeId) {\n        var employee = employees[employeeId];\n        _wages(employee);\n        totalSalary = totalSalary.add(employee.salary.sub(newSalary));\n        employees[employeeId].salary = newSalary.mul(1 ether);\n        employees[employeeId].lastPayday = now;\n        UpdateEmployee(employeeId);\n    }\n    \n    //Add etherium fund into the contract\n    function addFund() payable returns (uint) {\n        NewFund(this.balance);\n        return this.balance;\n    }\n    \n    //change payment address\n    function changePaymentAddress(address employeeId, address newAddress) onlyOwner existEmployee(employeeId) {\n        var employee = employees[employeeId];\n        uint currentSalary = employee.salary.div(1 ether);\n        uint wage = employee.salary.mul(now.sub(employee.lastPayday).div(payDuration));\n        totalSalary = totalSalary.sub(employees[employeeId].salary.mul(1 ether));\n        delete employees[employeeId];\n        addEmployee(newAddress, currentSalary);\n        var newEmployee = employees[newAddress];\n        newEmployee.id.transfer(wage);\n        newEmployee.lastPayday = now;\n    }\n    \n    //check employees details\n    function checkEmployee(uint index) returns (address employeeId, uint salary, uint lastPayday) {\n        employeeId = employeeList[index];\n        var employee = employees[employeeId];\n        salary = employee.salary;\n        lastPayday = employee.lastPayday;\n    }\n    \n    //calculate how many times can be paid from your balance\n    function calculateRunway() returns (uint) {\n        return this.balance.div(totalSalary);\n    }\n    \n    //calculate if your balance can afford the next payment\n    function enoughFund() returns (bool) {\n        return calculateRunway() > 0;\n    }\n    \n    //your employee can get paid from this function\n    function getPaid() existEmployee(msg.sender) {\n        var employee = employees[msg.sender];\n        \n        uint nextPayday = employee.lastPayday.add(payDuration);\n        \n        assert(nextPayday < now);\n        \n        employees[msg.sender].lastPayday = nextPayday;\n        employee.id.transfer(employee.salary);\n        GetPaid(employee.id);\n    }\n\n    function checkInfo() returns (uint balance, uint runway, uint employeeCount) {\n        balance = this.balance;\n        employeeCount = totalEmployee;\n\n        if (totalSalary > 0) {\n            runway = calculateRunway();\n        }\n    }\n}",
  "sourcePath": "/Users/junejune/OneDrive/Soliditysmartcontract/public/Payroll/contracts/employment.sol",
  "compiler": {
    "name": "solc",
    "version": "0.4.19+commit.c4cbbb05.Emscripten.clang"
  },
  "schemaVersion": "2.0.0",
  "updatedAt": "2018-03-31T13:11:53.247Z"
}