{
  "contractName": "Payroll",
  "abi": [
    {
      "constant": true,
      "inputs": [],
      "name": "owner",
      "outputs": [
        {
          "name": "",
          "type": "address"
        }
      ],
      "payable": false,
      "stateMutability": "view",
      "type": "function"
    },
    {
      "constant": true,
      "inputs": [
        {
          "name": "",
          "type": "address"
        }
      ],
      "name": "employees",
      "outputs": [
        {
          "name": "id",
          "type": "address"
        },
        {
          "name": "salary",
          "type": "uint256"
        },
        {
          "name": "lastPayday",
          "type": "uint256"
        }
      ],
      "payable": false,
      "stateMutability": "view",
      "type": "function"
    },
    {
      "constant": false,
      "inputs": [
        {
          "name": "newOwner",
          "type": "address"
        }
      ],
      "name": "transferOwnership",
      "outputs": [],
      "payable": false,
      "stateMutability": "nonpayable",
      "type": "function"
    },
    {
      "anonymous": false,
      "inputs": [
        {
          "indexed": true,
          "name": "previousOwner",
          "type": "address"
        },
        {
          "indexed": true,
          "name": "newOwner",
          "type": "address"
        }
      ],
      "name": "OwnershipTransferred",
      "type": "event"
    },
    {
      "constant": false,
      "inputs": [
        {
          "name": "employeeId",
          "type": "address"
        },
        {
          "name": "salary",
          "type": "uint256"
        }
      ],
      "name": "addEmployee",
      "outputs": [],
      "payable": false,
      "stateMutability": "nonpayable",
      "type": "function"
    },
    {
      "constant": false,
      "inputs": [
        {
          "name": "employeeId",
          "type": "address"
        }
      ],
      "name": "removeEmployee",
      "outputs": [],
      "payable": false,
      "stateMutability": "nonpayable",
      "type": "function"
    },
    {
      "constant": false,
      "inputs": [
        {
          "name": "employeeId",
          "type": "address"
        },
        {
          "name": "newSalary",
          "type": "uint256"
        }
      ],
      "name": "adjustSalary",
      "outputs": [],
      "payable": false,
      "stateMutability": "nonpayable",
      "type": "function"
    },
    {
      "constant": false,
      "inputs": [],
      "name": "addFund",
      "outputs": [
        {
          "name": "",
          "type": "uint256"
        }
      ],
      "payable": true,
      "stateMutability": "payable",
      "type": "function"
    },
    {
      "constant": false,
      "inputs": [
        {
          "name": "employeeId",
          "type": "address"
        },
        {
          "name": "newAddress",
          "type": "address"
        }
      ],
      "name": "changePaymentAddress",
      "outputs": [],
      "payable": false,
      "stateMutability": "nonpayable",
      "type": "function"
    },
    {
      "constant": false,
      "inputs": [
        {
          "name": "employeeId",
          "type": "address"
        }
      ],
      "name": "checkEmployee",
      "outputs": [
        {
          "name": "salary",
          "type": "uint256"
        },
        {
          "name": "lastPayday",
          "type": "uint256"
        }
      ],
      "payable": false,
      "stateMutability": "nonpayable",
      "type": "function"
    },
    {
      "constant": false,
      "inputs": [],
      "name": "calculateRunway",
      "outputs": [
        {
          "name": "",
          "type": "uint256"
        }
      ],
      "payable": false,
      "stateMutability": "nonpayable",
      "type": "function"
    },
    {
      "constant": false,
      "inputs": [],
      "name": "enoughFund",
      "outputs": [
        {
          "name": "",
          "type": "bool"
        }
      ],
      "payable": false,
      "stateMutability": "nonpayable",
      "type": "function"
    },
    {
      "constant": false,
      "inputs": [],
      "name": "getPaid",
      "outputs": [],
      "payable": false,
      "stateMutability": "nonpayable",
      "type": "function"
    },
    {
      "constant": false,
      "inputs": [],
      "name": "checkInfo",
      "outputs": [
        {
          "name": "balance",
          "type": "uint256"
        },
        {
          "name": "runway",
          "type": "uint256"
        },
        {
          "name": "employeeCount",
          "type": "uint256"
        }
      ],
      "payable": false,
      "stateMutability": "nonpayable",
      "type": "function"
    }
  ],
  "bytecode": "0x606060405260006003556000600455336000806101000a81548173ffffffffffffffffffffffffffffffffffffffff021916908373ffffffffffffffffffffffffffffffffffffffff1602179055506113d78061005d6000396000f3006060604052600436106100c5576000357c0100000000000000000000000000000000000000000000000000000000900463ffffffff1680634ec19512146100ca5780637cf562b7146100f357806385a96258146101475780638da5cb5b1461017e578063a2f09dfa146101d3578063bc456c42146101f1578063cf41d6f814610249578063d06789471461025e578063d108177a146102e5578063e2a16bad1461031e578063e7fd9a131461034b578063f2fde38b1461038d578063ff836829146103c6575b600080fd5b34156100d557600080fd5b6100dd610408565b6040518082815260200191505060405180910390f35b34156100fe57600080fd5b61012a600480803573ffffffffffffffffffffffffffffffffffffffff1690602001909190505061043b565b604051808381526020018281526020019250505060405180910390f35b341561015257600080fd5b61015a610495565b60405180848152602001838152602001828152602001935050505060405180910390f35b341561018957600080fd5b6101916104d4565b604051808273ffffffffffffffffffffffffffffffffffffffff1673ffffffffffffffffffffffffffffffffffffffff16815260200191505060405180910390f35b6101db6104f9565b6040518082815260200191505060405180910390f35b34156101fc57600080fd5b610247600480803573ffffffffffffffffffffffffffffffffffffffff1690602001909190803573ffffffffffffffffffffffffffffffffffffffff16906020019091905050610518565b005b341561025457600080fd5b61025c610836565b005b341561026957600080fd5b610295600480803573ffffffffffffffffffffffffffffffffffffffff169060200190919050506109bb565b604051808473ffffffffffffffffffffffffffffffffffffffff1673ffffffffffffffffffffffffffffffffffffffff168152602001838152602001828152602001935050505060405180910390f35b34156102f057600080fd5b61031c600480803573ffffffffffffffffffffffffffffffffffffffff16906020019091905050610a05565b005b341561032957600080fd5b610331610c9b565b604051808215151515815260200191505060405180910390f35b341561035657600080fd5b61038b600480803573ffffffffffffffffffffffffffffffffffffffff16906020019091908035906020019091905050610cac565b005b341561039857600080fd5b6103c4600480803573ffffffffffffffffffffffffffffffffffffffff16906020019091905050610ecf565b005b34156103d157600080fd5b610406600480803573ffffffffffffffffffffffffffffffffffffffff16906020019091908035906020019091905050611024565b005b60006104366003543073ffffffffffffffffffffffffffffffffffffffff163161128890919063ffffffff16565b905090565b6000806000600160008573ffffffffffffffffffffffffffffffffffffffff1673ffffffffffffffffffffffffffffffffffffffff1681526020019081526020016000209050806001015492508060020154915050915091565b60008060003073ffffffffffffffffffffffffffffffffffffffff163192506004549050600060035411156104cf576104cc610408565b91505b909192565b6000809054906101000a900473ffffffffffffffffffffffffffffffffffffffff1681565b60003073ffffffffffffffffffffffffffffffffffffffff1631905090565b6000806000806000809054906101000a900473ffffffffffffffffffffffffffffffffffffffff1673ffffffffffffffffffffffffffffffffffffffff163373ffffffffffffffffffffffffffffffffffffffff1614151561057957600080fd5b856000600160008373ffffffffffffffffffffffffffffffffffffffff1673ffffffffffffffffffffffffffffffffffffffff168152602001908152602001600020905060008273ffffffffffffffffffffffffffffffffffffffff16141515156105e057fe5b600160008973ffffffffffffffffffffffffffffffffffffffff1673ffffffffffffffffffffffffffffffffffffffff1681526020019081526020016000209550610640670de0b6b3a7640000876001015461128890919063ffffffff16565b945061068261066f600a6106618960020154426112a390919063ffffffff16565b61128890919063ffffffff16565b87600101546112bc90919063ffffffff16565b93506106f56106e4670de0b6b3a7640000600160008c73ffffffffffffffffffffffffffffffffffffffff1673ffffffffffffffffffffffffffffffffffffffff168152602001908152602001600020600101546112bc90919063ffffffff16565b6003546112a390919063ffffffff16565b600381905550600160008973ffffffffffffffffffffffffffffffffffffffff1673ffffffffffffffffffffffffffffffffffffffff168152602001908152602001600020600080820160006101000a81549073ffffffffffffffffffffffffffffffffffffffff021916905560018201600090556002820160009055505061077e8786610cac565b600160008873ffffffffffffffffffffffffffffffffffffffff1673ffffffffffffffffffffffffffffffffffffffff16815260200190815260200160002092508260000160009054906101000a900473ffffffffffffffffffffffffffffffffffffffff1673ffffffffffffffffffffffffffffffffffffffff166108fc859081150290604051600060405180830381858888f19350505050151561082357600080fd5b4283600201819055505050505050505050565b600080336000600160008373ffffffffffffffffffffffffffffffffffffffff1673ffffffffffffffffffffffffffffffffffffffff168152602001908152602001600020905060008273ffffffffffffffffffffffffffffffffffffffff16141515156108a057fe5b600160003373ffffffffffffffffffffffffffffffffffffffff1673ffffffffffffffffffffffffffffffffffffffff16815260200190815260200160002093506108f9600a85600201546112f790919063ffffffff16565b9250428310151561090657fe5b82600160003373ffffffffffffffffffffffffffffffffffffffff1673ffffffffffffffffffffffffffffffffffffffff168152602001908152602001600020600201819055508360000160009054906101000a900473ffffffffffffffffffffffffffffffffffffffff1673ffffffffffffffffffffffffffffffffffffffff166108fc85600101549081150290604051600060405180830381858888f1935050505015156109b557600080fd5b50505050565b60016020528060005260406000206000915090508060000160009054906101000a900473ffffffffffffffffffffffffffffffffffffffff16908060010154908060020154905083565b60008060009054906101000a900473ffffffffffffffffffffffffffffffffffffffff1673ffffffffffffffffffffffffffffffffffffffff163373ffffffffffffffffffffffffffffffffffffffff16141515610a6257600080fd5b816000600160008373ffffffffffffffffffffffffffffffffffffffff1673ffffffffffffffffffffffffffffffffffffffff168152602001908152602001600020905060008273ffffffffffffffffffffffffffffffffffffffff1614151515610ac957fe5b600160008573ffffffffffffffffffffffffffffffffffffffff1673ffffffffffffffffffffffffffffffffffffffff1681526020019081526020016000209250610b8983606060405190810160405290816000820160009054906101000a900473ffffffffffffffffffffffffffffffffffffffff1673ffffffffffffffffffffffffffffffffffffffff1673ffffffffffffffffffffffffffffffffffffffff16815260200160018201548152602001600282015481525050611315565b610bfa610be9670de0b6b3a7640000600160008873ffffffffffffffffffffffffffffffffffffffff1673ffffffffffffffffffffffffffffffffffffffff168152602001908152602001600020600101546112bc90919063ffffffff16565b6003546112a390919063ffffffff16565b600381905550600160008573ffffffffffffffffffffffffffffffffffffffff1673ffffffffffffffffffffffffffffffffffffffff168152602001908152602001600020600080820160006101000a81549073ffffffffffffffffffffffffffffffffffffffff0219169055600182016000905560028201600090555050610c8f60016004546112a390919063ffffffff16565b60048190555050505050565b600080610ca6610408565b11905090565b60008060009054906101000a900473ffffffffffffffffffffffffffffffffffffffff1673ffffffffffffffffffffffffffffffffffffffff163373ffffffffffffffffffffffffffffffffffffffff16141515610d0957600080fd5b600160008473ffffffffffffffffffffffffffffffffffffffff1673ffffffffffffffffffffffffffffffffffffffff168152602001908152602001600020905060008160000160009054906101000a900473ffffffffffffffffffffffffffffffffffffffff1673ffffffffffffffffffffffffffffffffffffffff16141515610d9057fe5b6060604051908101604052808473ffffffffffffffffffffffffffffffffffffffff168152602001610dd3670de0b6b3a7640000856112bc90919063ffffffff16565b815260200142815250600160008573ffffffffffffffffffffffffffffffffffffffff1673ffffffffffffffffffffffffffffffffffffffff16815260200190815260200160002060008201518160000160006101000a81548173ffffffffffffffffffffffffffffffffffffffff021916908373ffffffffffffffffffffffffffffffffffffffff1602179055506020820151816001015560408201518160020155905050610ea8610e97670de0b6b3a7640000846112bc90919063ffffffff16565b6003546112f790919063ffffffff16565b600381905550610ec460016004546112f790919063ffffffff16565b600481905550505050565b6000809054906101000a900473ffffffffffffffffffffffffffffffffffffffff1673ffffffffffffffffffffffffffffffffffffffff163373ffffffffffffffffffffffffffffffffffffffff16141515610f2a57600080fd5b600073ffffffffffffffffffffffffffffffffffffffff168173ffffffffffffffffffffffffffffffffffffffff1614151515610f6657600080fd5b8073ffffffffffffffffffffffffffffffffffffffff166000809054906101000a900473ffffffffffffffffffffffffffffffffffffffff1673ffffffffffffffffffffffffffffffffffffffff167f8be0079c531659141344cd1fd0a4f28419497f9722a3daafe3b4186f6b6457e060405160405180910390a3806000806101000a81548173ffffffffffffffffffffffffffffffffffffffff021916908373ffffffffffffffffffffffffffffffffffffffff16021790555050565b60008060009054906101000a900473ffffffffffffffffffffffffffffffffffffffff1673ffffffffffffffffffffffffffffffffffffffff163373ffffffffffffffffffffffffffffffffffffffff1614151561108157600080fd5b826000600160008373ffffffffffffffffffffffffffffffffffffffff1673ffffffffffffffffffffffffffffffffffffffff168152602001908152602001600020905060008273ffffffffffffffffffffffffffffffffffffffff16141515156110e857fe5b600160008673ffffffffffffffffffffffffffffffffffffffff1673ffffffffffffffffffffffffffffffffffffffff16815260200190815260200160002092506111a883606060405190810160405290816000820160009054906101000a900473ffffffffffffffffffffffffffffffffffffffff1673ffffffffffffffffffffffffffffffffffffffff1673ffffffffffffffffffffffffffffffffffffffff16815260200160018201548152602001600282015481525050611315565b6111d36111c28585600101546112a390919063ffffffff16565b6003546112f790919063ffffffff16565b6003819055506111f4670de0b6b3a7640000856112bc90919063ffffffff16565b600160008773ffffffffffffffffffffffffffffffffffffffff1673ffffffffffffffffffffffffffffffffffffffff1681526020019081526020016000206001018190555042600160008773ffffffffffffffffffffffffffffffffffffffff1673ffffffffffffffffffffffffffffffffffffffff168152602001908152602001600020600201819055505050505050565b600080828481151561129657fe5b0490508091505092915050565b60008282111515156112b157fe5b818303905092915050565b60008060008414156112d157600091506112f0565b82840290508284828115156112e257fe5b041415156112ec57fe5b8091505b5092915050565b600080828401905083811015151561130b57fe5b8091505092915050565b6000611357600a6113496113368560400151426112a390919063ffffffff16565b85602001516112bc90919063ffffffff16565b61128890919063ffffffff16565b9050816000015173ffffffffffffffffffffffffffffffffffffffff166108fc829081150290604051600060405180830381858888f19350505050151561139d57600080fd5b4282604001818152505050505600a165627a7a72305820e53e78bbf8f111630146b117762eb43e478174e8351310ad4711a79204e998190029",
  "source": "//solidity version\npragma solidity ^0.4.14;\n\nimport \"./safemath.sol\";\nimport \"./Ownable.sol\";\n\n//contract declaration\ncontract Payroll is Ownable {\n    using SafeMath for uint;\n        //Define variables;\n    struct Employee{\n        address id;\n        uint salary;\n        uint lastPayday;\n    }\n    \n    mapping(address => Employee) public employees;\n    address administrator;\n    uint constant payDuration = 10 seconds;\n    uint totalSalary = 0;\n    uint totalEmployee = 0;\n    \n    modifier existEmployee(address employeeId) {\n        var employee = employees[employeeId];\n        assert(employeeId != 0x0);\n        _;\n    }\n    \n    //add employee\n    function addEmployee(address employeeId, uint salary) onlyOwner {\n        var employee = employees[employeeId];\n        assert(employee.id == 0x0);\n        employees[employeeId] = Employee(employeeId, salary.mul(1 ether), now);\n        totalSalary = totalSalary.add(salary.mul(1 ether));\n        totalEmployee = totalEmployee.add(1);\n    }\n    \n    //remove employee\n    function removeEmployee(address employeeId) onlyOwner existEmployee(employeeId) {\n        var employee = employees[employeeId];\n        _wages(employee);\n        totalSalary = totalSalary.sub(employees[employeeId].salary.mul(1 ether));\n        delete employees[employeeId];\n        totalEmployee = totalEmployee.sub(1);\n        return;\n    }\n    \n    //Pay the wages when address or salary changes\n    function _wages(Employee employee) private {\n        uint wage = employee.salary.mul(now.sub(employee.lastPayday)).div(payDuration);\n        employee.id.transfer(wage);\n        employee.lastPayday = now;\n    }\n    \n    //Adjust or declare the salary of your employee\n    function adjustSalary(address employeeId, uint newSalary) onlyOwner existEmployee(employeeId) {\n        var employee = employees[employeeId];\n        _wages(employee);\n        totalSalary = totalSalary.add(employee.salary.sub(newSalary));\n        employees[employeeId].salary = newSalary.mul(1 ether);\n        employees[employeeId].lastPayday = now;\n    }\n    \n    //Add etherium fund into the contract\n    function addFund() payable returns (uint) {\n        return this.balance;\n    }\n    \n    //change payment address\n    function changePaymentAddress(address employeeId, address newAddress) onlyOwner existEmployee(employeeId) {\n        var employee = employees[employeeId];\n        uint currentSalary = employee.salary.div(1 ether);\n        uint wage = employee.salary.mul(now.sub(employee.lastPayday).div(payDuration));\n        totalSalary = totalSalary.sub(employees[employeeId].salary.mul(1 ether));\n        delete employees[employeeId];\n        addEmployee(newAddress, currentSalary);\n        var newEmployee = employees[newAddress];\n        newEmployee.id.transfer(wage);\n        newEmployee.lastPayday = now;\n    }\n    \n    //check employees details\n    function checkEmployee(address employeeId) returns (uint salary, uint lastPayday) {\n        var employee = employees[employeeId];\n        salary = employee.salary;\n        lastPayday = employee.lastPayday;\n    }\n    \n    //calculate how many times can be paid from your balance\n    function calculateRunway() returns (uint) {\n        return this.balance.div(totalSalary);\n    }\n    \n    //calculate if your balance can afford the next payment\n    function enoughFund() returns (bool) {\n        return calculateRunway() > 0;\n    }\n    \n    //your employee can get paid from this function\n    function getPaid() existEmployee(msg.sender) {\n        var employee = employees[msg.sender];\n        \n        uint nextPayday = employee.lastPayday.add(payDuration);\n        \n        assert(nextPayday < now);\n        \n        employees[msg.sender].lastPayday = nextPayday;\n        employee.id.transfer(employee.salary);\n    }\n\n    function checkInfo() returns (uint balance, uint runway, uint employeeCount) {\n        balance = this.balance;\n        employeeCount = totalEmployee;\n\n        if (totalSalary > 0) {\n            runway = calculateRunway();\n        }\n    }\n}",
  "sourcePath": "/home/vagrant/soliditysmartcontract/public/payroll/contracts/employment.sol",
  "compiler": {
    "name": "solc",
    "version": "0.4.19+commit.c4cbbb05.Emscripten.clang"
  },
  "schemaVersion": "2.0.0",
  "updatedAt": "2018-03-28T06:50:30.926Z"
}